{
  "address": "0x9BCeafF5b06ed6fB40af419aa6E7F74E9e278998",
  "abi": [
    {
      "inputs": [],
      "stateMutability": "nonpayable",
      "type": "constructor"
    },
    {
      "inputs": [
        {
          "internalType": "uint256",
          "name": "",
          "type": "uint256"
        }
      ],
      "name": "rewardTokens",
      "outputs": [
        {
          "internalType": "address",
          "name": "",
          "type": "address"
        }
      ],
      "stateMutability": "view",
      "type": "function"
    },
    {
      "inputs": [
        {
          "internalType": "uint256",
          "name": "tokenId",
          "type": "uint256"
        },
        {
          "components": [
            {
              "internalType": "string",
              "name": "image",
              "type": "string"
            },
            {
              "internalType": "address[]",
              "name": "tokens",
              "type": "address[]"
            },
            {
              "internalType": "uint256",
              "name": "rate",
              "type": "uint256"
            },
            {
              "internalType": "uint256",
              "name": "attack",
              "type": "uint256"
            },
            {
              "internalType": "uint256",
              "name": "defense",
              "type": "uint256"
            },
            {
              "internalType": "uint256",
              "name": "health",
              "type": "uint256"
            },
            {
              "internalType": "uint256",
              "name": "critChance",
              "type": "uint256"
            },
            {
              "internalType": "uint256",
              "name": "critDmg",
              "type": "uint256"
            },
            {
              "internalType": "uint256",
              "name": "recover",
              "type": "uint256"
            }
          ],
          "internalType": "struct INFT.TokenInfo",
          "name": "token",
          "type": "tuple"
        }
      ],
      "name": "tokenURI",
      "outputs": [
        {
          "internalType": "string",
          "name": "",
          "type": "string"
        }
      ],
      "stateMutability": "view",
      "type": "function"
    }
  ],
  "transactionHash": "0xedd0f3ce96320c12b3b070c0be54ba7a12939cb9bbc7c50afbbf4e904ce94575",
  "args": [],
  "numDeployments": 1,
  "solcInputHash": "7553482301c0ed88af43d19a4d65ae1a",
  "bytecode": "0x61010060405260006080818152600160a052600260c052600360e05262000029919060046200097a565b50604080516101208101909152604260a082018181528291620028ad60c084013981526020016040518060800160405280604281526020016200250e604291398152602001604051806080016040528060428152602001620025d260429139815260200160405180608001604052806042815260200162002407604291398152602001604051806080016040528060428152602001620027e2604291399052620000d8906004906005620009d7565b50604080516101208101909152604260a0820181815282916200293660c084013981526020016040518060800160405280604281526020016200248a604291398152602001604051806080016040528060428152602001620024cc6042913981526020016040518060800160405280604281526020016200286b604291398152602001604051806080016040528060428152602001620027a0604291399052620001869060059081620009d7565b50604080516101208101909152604160a0820181815282916200244960c084013981526020016040518060800160405280604181526020016200261460419139815260200160405180608001604052806041815260200162002550604191398152602001604051806080016040528060418152602001620023c6604191398152602001604051806080016040528060418152602001620026d760419139905262000235906006906005620009d7565b50604080516101208101909152604160a0820181815282916200269660c084013981526020016040518060800160405280604181526020016200275f604191398152602001604051806080016040528060418152602001620029786041913981526020016040518060800160405280604181526020016200265560419139815260200160405180608001604052806041815260200162002591604191399052620002e4906007906005620009d7565b50604080516101408101909152604760c0820181815282916200282460e08401398152602001604051806080016040528060478152602001620028ef60479139815260200160405180608001604052806047815260200162002a8e60479139815260200160405180608001604052806047815260200162002824604791398152602001604051806080016040528060478152602001620028ef60479139815260200160405180608001604052806047815260200162002a8e604791399052620003b290600890600662000a30565b50604080516101008101909152604760808201818152829162002a4760a08401398152602001604051806080016040528060478152602001620029b96047913981526020016040518060800160405280604781526020016200271860479139815260200160405180608001604052806047815260200162002ad56047913990526200044290600990600462000a7b565b5060405180608001604052806047815260200162002a0060479139600a906200046c908262000be5565b503480156200047a57600080fd5b50620004856200048b565b62000dfd565b6103e860005b6005811015620005fa576004600081548110620004b257620004b262000cb1565b6000918252602080832083546001600160a01b03168452600b82526040808520878652909252922091620004e891018262000cc7565b50600560008154811062000500576200050062000cb1565b600091825260208083206001546001600160a01b03168452600b825260408085208786529092529220916200053791018262000cc7565b5060066000815481106200054f576200054f62000cb1565b600091825260208083206002546001600160a01b03168452600b825260408085208786529092529220916200058691018262000cc7565b5060076000815481106200059e576200059e62000cb1565b600091825260208083206003546001600160a01b03168452600b82526040808520878652909252922091620005d591018262000cc7565b50620005e360fa8362000dc6565b915080620005f18162000de1565b91505062000491565b50600860008154811062000612576200061262000cb1565b6000918252602080832083546001600160a01b039081168552600c83526040808620600154909216865292529220916200064e91018262000cc7565b50600860018154811062000666576200066662000cb1565b6000918252602080832083546001600160a01b039081168552600c8352604080862060025490921686529252922091620006a291018262000cc7565b506008600281548110620006ba57620006ba62000cb1565b6000918252602080832083546001600160a01b039081168552600c8352604080862060035490921686529252922091620006f691018262000cc7565b5060086003815481106200070e576200070e62000cb1565b600091825260208083206001546001600160a01b039081168552600c83526040808620600254909216865292529220916200074b91018262000cc7565b50600860048154811062000763576200076362000cb1565b600091825260208083206001546001600160a01b039081168552600c8352604080862060035490921686529252922091620007a091018262000cc7565b506008600581548110620007b857620007b862000cb1565b600091825260208083206002546001600160a01b039081168552600c8352604080862060035490921686529252922091620007f591018262000cc7565b5060096000815481106200080d576200080d62000cb1565b6000918252602080832083546001600160a01b039081168552600d83526040808620600154831687528452808620600254909216865292529220916200085591018262000cc7565b5060096001815481106200086d576200086d62000cb1565b6000918252602080832083546001600160a01b039081168552600d8352604080862060015483168752845280862060035490921686529252922091620008b591018262000cc7565b506009600281548110620008cd57620008cd62000cb1565b6000918252602080832083546001600160a01b039081168552600d83526040808620600254831687528452808620600354909216865292529220916200091591018262000cc7565b5060096003815481106200092d576200092d62000cb1565b600091825260208083206001546001600160a01b039081168552600d83526040808620600254831687528452808620600354909216865292529220916200097691018262000cc7565b5050565b8260048101928215620009c5579160200282015b82811115620009c557825182546001600160a01b0319166001600160a01b039091161782556020909201916001909101906200098e565b50620009d392915062000ac6565b5090565b82805482825590600052602060002090810192821562000a22579160200282015b8281111562000a22578251829062000a11908262000be5565b5091602001919060010190620009f8565b50620009d392915062000add565b82805482825590600052602060002090810192821562000a22579160200282015b8281111562000a22578251829062000a6a908262000be5565b509160200191906001019062000a51565b82805482825590600052602060002090810192821562000a22579160200282015b8281111562000a22578251829062000ab5908262000be5565b509160200191906001019062000a9c565b5b80821115620009d3576000815560010162000ac7565b80821115620009d357600062000af4828262000afe565b5060010162000add565b50805462000b0c9062000b56565b6000825580601f1062000b1d575050565b601f01602090049060005260206000209081019062000b3d919062000ac6565b50565b634e487b7160e01b600052604160045260246000fd5b600181811c9082168062000b6b57607f821691505b60208210810362000b8c57634e487b7160e01b600052602260045260246000fd5b50919050565b601f82111562000be057600081815260208120601f850160051c8101602086101562000bbb5750805b601f850160051c820191505b8181101562000bdc5782815560010162000bc7565b5050505b505050565b81516001600160401b0381111562000c015762000c0162000b40565b62000c198162000c12845462000b56565b8462000b92565b602080601f83116001811462000c51576000841562000c385750858301515b600019600386901b1c1916600185901b17855562000bdc565b600085815260208120601f198616915b8281101562000c825788860151825594840194600190910190840162000c61565b508582101562000ca15787850151600019600388901b60f8161c191681555b5050505050600190811b01905550565b634e487b7160e01b600052603260045260246000fd5b81810362000cd3575050565b62000cdf825462000b56565b6001600160401b0381111562000cf95762000cf962000b40565b62000d0a8162000c12845462000b56565b6000601f82116001811462000d41576000831562000d285750848201545b600019600385901b1c1916600184901b17845562000da9565b600085815260209020601f19841690600086815260209020845b8381101562000d7d578286015482556001958601959091019060200162000d5b565b508583101562000d9c5781850154600019600388901b60f8161c191681555b50505060018360011b0184555b5050505050565b634e487b7160e01b600052601160045260246000fd5b6000821982111562000ddc5762000ddc62000db0565b500190565b60006001820162000df65762000df662000db0565b5060010190565b6115b98062000e0d6000396000f3fe608060405234801561001057600080fd5b50600436106100365760003560e01c80637bb7bed11461003b578063977318941461006b575b600080fd5b61004e610049366004610ce7565b61008b565b6040516001600160a01b0390911681526020015b60405180910390f35b61007e610079366004610d00565b6100ab565b6040516100629190610d7f565b6000816004811061009b57600080fd5b01546001600160a01b0316905081565b60606101396100b984610161565b6100c28461026a565b6101096100d26020870187610db2565b808060200260200160405190810160405280939291908181526020018383602002808284376000920191909152506103e992505050565b610112866104e2565b6040516020016101259493929190610e57565b60405160208183030381529060405261056c565b6040516020016101499190610f69565b60405160208183030381529060405290505b92915050565b6060816000036101885750506040805180820190915260018152600360fc1b602082015290565b8160005b81156101b2578061019c81610fc4565b91506101ab9050600a83610ff3565b915061018c565b60008167ffffffffffffffff8111156101cd576101cd611007565b6040519080825280601f01601f1916602001820160405280156101f7576020820181803683370190505b5090505b84156102625761020c60018361101d565b9150610219600a86611034565b610224906030611048565b60f81b81838151811061023957610239611060565b60200101906001600160f81b031916908160001a90535061025b600a86610ff3565b94506101fb565b949350505050565b60606102796020830183610db2565b905060010361037e57600b60006102936020850185610db2565b60008181106102a4576102a4611060565b90506020020160208101906102b99190611076565b6001600160a01b03166001600160a01b0316815260200190815260200160002060008360400135815260200190815260200160002080546102f99061109f565b80601f01602080910402602001604051908101604052809291908181526020018280546103259061109f565b80156103725780601f1061034757610100808354040283529160200191610372565b820191906000526020600020905b81548152906001019060200180831161035557829003601f168201915b50505050509050919050565b600461038d6020840184610db2565b905010156103dc5761015b6103a56020840184610db2565b808060200260200160405190810160405280939291908181526020018383602002808284376000920191909152506106bf92505050565b600a80546102f99061109f565b6040805180820190915260018152605b60f81b602082015260609060005b83518110156104b9576001845161041e919061101d565b810361046e578161044785838151811061043a5761043a611060565b60200260200101516109b0565b6040516020016104589291906110d9565b60405160208183030381529060405291506104a7565b8161048485838151811061043a5761043a611060565b604051602001610495929190611125565b60405160208183030381529060405291505b806104b181610fc4565b915050610407565b50806040516020016104cb9190611172565b60408051601f198184030181529190529392505050565b60606104f18260600135610161565b6104fe8360800135610161565b61050b8460a00135610161565b6105188560c00135610161565b6105258660e00135610161565b6105328760400135610161565b610540886101000135610161565b6040516020016105569796959493929190611197565b6040516020818303038152906040529050919050565b6060815160000361058b57505060408051602081019091526000815290565b600060405180606001604052806040815260200161154460409139905060006003845160026105ba9190611048565b6105c49190610ff3565b6105cf906004611392565b67ffffffffffffffff8111156105e7576105e7611007565b6040519080825280601f01601f191660200182016040528015610611576020820181803683370190505b509050600182016020820185865187015b8082101561067d576003820191508151603f8160121c168501518453600184019350603f81600c1c168501518453600184019350603f8160061c168501518453600184019350603f8116850151845350600183019250610622565b505060038651066001811461069957600281146106ac576106b4565b603d6001830353603d60028303536106b4565b603d60018303535b509195945050505050565b604080516003808252608082019092526060916000919060208201848036833701905050905060005b83518110156107915760005b600481101561077e576000816004811061071057610710611060565b015485516001600160a01b039091169086908490811061073257610732611060565b60200260200101516001600160a01b03160361076c578083838151811061075b5761075b611060565b60200260200101818152505061077e565b8061077681610fc4565b9150506106f4565b508061078981610fc4565b9150506106e8565b5060006107a18260006002610af7565b9050805160030361094257600d600085836000815181106107c4576107c4611060565b6020026020010151815181106107dc576107dc611060565b60200260200101516001600160a01b03166001600160a01b031681526020019081526020016000206000858360018151811061081a5761081a611060565b60200260200101518151811061083257610832611060565b60200260200101516001600160a01b03166001600160a01b031681526020019081526020016000206000858360028151811061087057610870611060565b60200260200101518151811061088857610888611060565b60200260200101516001600160a01b03166001600160a01b0316815260200190815260200160002080546108bb9061109f565b80601f01602080910402602001604051908101604052809291908181526020018280546108e79061109f565b80156109345780601f1061090957610100808354040283529160200191610934565b820191906000526020600020905b81548152906001019060200180831161091757829003601f168201915b505050505092505050919050565b600c6000858360008151811061095a5761095a611060565b60200260200101518151811061097257610972611060565b60200260200101516001600160a01b03166001600160a01b031681526020019081526020016000206000858360018151811061087057610870611060565b60408051602880825260608281019093526000919060208201818036833701905050905060005b6014811015610af05760006109ed82601361101d565b6109f8906008611392565b610a03906002611495565b610a16906001600160a01b038716610ff3565b60f81b9050600060108260f81c610a2d91906114a1565b60f81b905060008160f81c6010610a4491906114c3565b8360f81c610a5291906114e4565b60f81b9050610a6082610cb1565b85610a6c866002611392565b81518110610a7c57610a7c611060565b60200101906001600160f81b031916908160001a905350610a9c81610cb1565b85610aa8866002611392565b610ab3906001611048565b81518110610ac357610ac3611060565b60200101906001600160f81b031916908160001a9053505050508080610ae890610fc4565b9150506109d7565b5092915050565b6060818310610b07575082610caa565b6000846002610b168587611048565b610b209190610ff3565b81518110610b3057610b30611060565b6020908102919091010151905083835b80821015610c68575b82878381518110610b5c57610b5c611060565b60200260200101511015610b7a57610b7382610fc4565b9150610b49565b82878281518110610b8d57610b8d611060565b60200260200101511115610bab57610ba481611507565b9050610b7a565b868181518110610bbd57610bbd611060565b6020026020010151878381518110610bd757610bd7611060565b60200260200101511115610c5857868181518110610bf757610bf7611060565b6020026020010151878381518110610c1157610c11611060565b6020026020010151888481518110610c2b57610c2b611060565b60200260200101898481518110610c4457610c44611060565b602090810291909101019190915252610b40565b610c6182610fc4565b9150610b40565b85811115610c8f57610c858787610c8060018561101d565b610af7565b9350505050610caa565b610ca487610c9e836001611048565b87610af7565b93505050505b9392505050565b6000600a60f883901c1015610cd857610ccf60f883901c603061151e565b60f81b92915050565b610ccf60f883901c605761151e565b600060208284031215610cf957600080fd5b5035919050565b60008060408385031215610d1357600080fd5b82359150602083013567ffffffffffffffff811115610d3157600080fd5b83016101208186031215610d4457600080fd5b809150509250929050565b60005b83811015610d6a578181015183820152602001610d52565b83811115610d79576000848401525b50505050565b6020815260008251806020840152610d9e816040850160208701610d4f565b601f01601f19169190910160400192915050565b6000808335601e19843603018112610dc957600080fd5b83018035915067ffffffffffffffff821115610de457600080fd5b6020019150600581901b3603821315610dfc57600080fd5b9250929050565b60008151610e15818560208601610d4f565b9290920192915050565b7f7d2c207b202274726169745f74797065223a202261747461636b222c202276618152650363ab2911d160d51b602082015260260190565b7f7b226e616d65223a2022426162696573206f66204d6172732023000000000000815260008551610e8f81601a850160208a01610d4f565b7f222c20226465736372697074696f6e223a20226164617364617364617364222c601a918401918201526a101134b6b0b3b2911d101160a91b603a8201528551610ee0816045840160208a01610d4f565b7f222c7b202261747472696275746573223a205b207b2274726169745f7479706560459290910191820152750111d10113a37b5b2b739911610113b30b63ab2911d160551b60658201528451610f3d81607b840160208901610d4f565b610f4b607b82840101610e1f565b9150508351610f5e818360208801610d4f565b019695505050505050565b7f646174613a6170706c69636174696f6e2f6a736f6e3b6261736536342c000000815260008251610fa181601d850160208701610d4f565b91909101601d0192915050565b634e487b7160e01b600052601160045260246000fd5b600060018201610fd657610fd6610fae565b5060010190565b634e487b7160e01b600052601260045260246000fd5b60008261100257611002610fdd565b500490565b634e487b7160e01b600052604160045260246000fd5b60008282101561102f5761102f610fae565b500390565b60008261104357611043610fdd565b500690565b6000821982111561105b5761105b610fae565b500190565b634e487b7160e01b600052603260045260246000fd5b60006020828403121561108857600080fd5b81356001600160a01b0381168114610caa57600080fd5b600181811c908216806110b357607f821691505b6020821081036110d357634e487b7160e01b600052602260045260246000fd5b50919050565b600083516110eb818460208801610d4f565b6204e60f60eb1b908301908152835161110b816003840160208801610d4f565b602760f81b60039290910191820152600401949350505050565b60008351611137818460208801610d4f565b6204e60f60eb1b9083019081528351611157816003840160208801610d4f565b6109cb60f21b60039290910191820152600501949350505050565b60008251611184818460208701610d4f565b605d60f81b920191825250600101919050565b60006111a282610e1f565b89516111b2818360208e01610d4f565b8082019150507f7d2c207b202274726169745f74797065223a2022646566656e7365222c202276815266030b63ab2911d160cd1b602082015288516111fe816027840160208d01610d4f565b7f7d2c207b202274726169745f74797065223a20226865616c7468222c2022766160279290910191820152650363ab2911d160d51b6047820152875161124b81604d840160208c01610d4f565b7f7d2c207b202274726169745f74797065223a2022637269746963616c20726174604d92909101918201526c032911610113b30b63ab2911d1609d1b606d82015261138461137361136d61133361132d6112f56112ef6112ae607a89018f610e03565b7f7d2c207b202274726169745f74797065223a2022637269746963616c2064616d81526e030b3b2911610113b30b63ab2911d1608d1b6020820152602f0190565b8c610e03565b7f7d2c207b202274726169745f74797065223a2022726174696e67222c202276618152650363ab2911d160d51b602082015260260190565b89610e03565b7f7d2c207b202274726169745f74797065223a20227265636f76657279222c202281526703b30b63ab2911d160c51b602082015260280190565b86610e03565b647d205d207d60d81b815260050190565b9a9950505050505050505050565b60008160001904831182151516156113ac576113ac610fae565b500290565b600181815b808511156113ec5781600019048211156113d2576113d2610fae565b808516156113df57918102915b93841c93908002906113b6565b509250929050565b6000826114035750600161015b565b816114105750600061015b565b816001811461142657600281146114305761144c565b600191505061015b565b60ff84111561144157611441610fae565b50506001821b61015b565b5060208310610133831016604e8410600b841016171561146f575081810a61015b565b61147983836113b1565b806000190482111561148d5761148d610fae565b029392505050565b6000610caa83836113f4565b600060ff8316806114b4576114b4610fdd565b8060ff84160491505092915050565b600060ff821660ff84168160ff048111821515161561148d5761148d610fae565b600060ff821660ff8416808210156114fe576114fe610fae565b90039392505050565b60008161151657611516610fae565b506000190190565b600060ff821660ff84168060ff0382111561153b5761153b610fae565b01939250505056fe4142434445464748494a4b4c4d4e4f505152535455565758595a6162636465666768696a6b6c6d6e6f707172737475767778797a303132333435363738392b2fa2646970667358221220d50b6820ad213f45f771fc95b47eab67ec0fd2997fb181280914212078b13dc864736f6c634300080f0033697066733a2f2f516d624635333461555070514175514c35433770533533547170705a46484a32325751525a4264797062326771642f446f67792d30342e706e67697066733a2f2f516d624635333461555070514175514c35433770533533547170705a46484a32325751525a4264797062326771642f53686962612d30342e706e67697066733a2f2f516d624635333461555070514175514c35433770533533547170705a46484a32325751525a4264797062326771642f446f67792d30312e706e67697066733a2f2f516d624635333461555070514175514c35433770533533547170705a46484a32325751525a4264797062326771642f466c6f6b692d30322e706e67697066733a2f2f516d624635333461555070514175514c35433770533533547170705a46484a32325751525a4264797062326771642f466c6f6b692d30332e706e67697066733a2f2f516d624635333461555070514175514c35433770533533547170705a46484a32325751525a4264797062326771642f53686962612d30322e706e67697066733a2f2f516d624635333461555070514175514c35433770533533547170705a46484a32325751525a4264797062326771642f446f67792d30332e706e67697066733a2f2f516d624635333461555070514175514c35433770533533547170705a46484a32325751525a4264797062326771642f446f67652d30352e706e67697066733a2f2f516d624635333461555070514175514c35433770533533547170705a46484a32325751525a4264797062326771642f53686962612d30332e706e67697066733a2f2f516d624635333461555070514175514c35433770533533547170705a46484a32325751525a4264797062326771642f446f67792d30322e706e67697066733a2f2f516d624635333461555070514175514c35433770533533547170705a46484a32325751525a4264797062326771642f446f67652d30342e706e67697066733a2f2f516d624635333461555070514175514c35433770533533547170705a46484a32325751525a4264797062326771642f446f67652d30312e706e67697066733a2f2f516d624635333461555070514175514c35433770533533547170705a46484a32325751525a4264797062326771642f446f67792d30352e706e67697066733a2f2f516d624635333461555070514175514c35433770533533547170705a46484a32325751525a4264797062326771642f4d6567612532304e46542d30362e706e67697066733a2f2f516d624635333461555070514175514c35433770533533547170705a46484a32325751525a4264797062326771642f446f67652d30322e706e67697066733a2f2f516d624635333461555070514175514c35433770533533547170705a46484a32325751525a4264797062326771642f466c6f6b692d30352e706e67697066733a2f2f516d624635333461555070514175514c35433770533533547170705a46484a32325751525a4264797062326771642f53686962612d30352e706e67697066733a2f2f516d624635333461555070514175514c35433770533533547170705a46484a32325751525a4264797062326771642f4d6567612532304e46542d30312e706e67697066733a2f2f516d624635333461555070514175514c35433770533533547170705a46484a32325751525a4264797062326771642f466c6f6b692d30342e706e67697066733a2f2f516d624635333461555070514175514c35433770533533547170705a46484a32325751525a4264797062326771642f53686962612d30312e706e67697066733a2f2f516d624635333461555070514175514c35433770533533547170705a46484a32325751525a4264797062326771642f4d6567612532304e46542d30322e706e67697066733a2f2f516d624635333461555070514175514c35433770533533547170705a46484a32325751525a4264797062326771642f466c6f6b692d30312e706e67697066733a2f2f516d624635333461555070514175514c35433770533533547170705a46484a32325751525a4264797062326771642f446f67652d30332e706e67697066733a2f2f516d624635333461555070514175514c35433770533533547170705a46484a32325751525a4264797062326771642f4d6567612532304e46542d30352e706e67697066733a2f2f516d624635333461555070514175514c35433770533533547170705a46484a32325751525a4264797062326771642f4d6567612532304e46542d31302e706e67697066733a2f2f516d624635333461555070514175514c35433770533533547170705a46484a32325751525a4264797062326771642f4d6567612532304e46542d30342e706e67697066733a2f2f516d624635333461555070514175514c35433770533533547170705a46484a32325751525a4264797062326771642f4d6567612532304e46542d30332e706e67697066733a2f2f516d624635333461555070514175514c35433770533533547170705a46484a32325751525a4264797062326771642f4d6567612532304e46542d30372e706e67",
  "devdoc": {
    "kind": "dev",
    "methods": {},
    "version": 1
  },
  "userdoc": {
    "kind": "user",
    "methods": {},
    "version": 1
  },
  "storageLayout": {
    "storage": [
      {
        "astId": 2805,
        "contract": "contracts/nftMetadata.sol:NFTMetadata",
        "label": "rewardTokens",
        "offset": 0,
        "slot": "0",
        "type": "t_array(t_address)4_storage"
      },
      {
        "astId": 2814,
        "contract": "contracts/nftMetadata.sol:NFTMetadata",
        "label": "shiba",
        "offset": 0,
        "slot": "4",
        "type": "t_array(t_string_storage)dyn_storage"
      },
      {
        "astId": 2823,
        "contract": "contracts/nftMetadata.sol:NFTMetadata",
        "label": "floki",
        "offset": 0,
        "slot": "5",
        "type": "t_array(t_string_storage)dyn_storage"
      },
      {
        "astId": 2832,
        "contract": "contracts/nftMetadata.sol:NFTMetadata",
        "label": "dogy",
        "offset": 0,
        "slot": "6",
        "type": "t_array(t_string_storage)dyn_storage"
      },
      {
        "astId": 2841,
        "contract": "contracts/nftMetadata.sol:NFTMetadata",
        "label": "doge",
        "offset": 0,
        "slot": "7",
        "type": "t_array(t_string_storage)dyn_storage"
      },
      {
        "astId": 2851,
        "contract": "contracts/nftMetadata.sol:NFTMetadata",
        "label": "megaMin",
        "offset": 0,
        "slot": "8",
        "type": "t_array(t_string_storage)dyn_storage"
      },
      {
        "astId": 2859,
        "contract": "contracts/nftMetadata.sol:NFTMetadata",
        "label": "megaMid",
        "offset": 0,
        "slot": "9",
        "type": "t_array(t_string_storage)dyn_storage"
      },
      {
        "astId": 2862,
        "contract": "contracts/nftMetadata.sol:NFTMetadata",
        "label": "megaMax",
        "offset": 0,
        "slot": "10",
        "type": "t_string_storage"
      },
      {
        "astId": 2868,
        "contract": "contracts/nftMetadata.sol:NFTMetadata",
        "label": "simpleImage",
        "offset": 0,
        "slot": "11",
        "type": "t_mapping(t_address,t_mapping(t_uint256,t_string_storage))"
      },
      {
        "astId": 2874,
        "contract": "contracts/nftMetadata.sol:NFTMetadata",
        "label": "minImage",
        "offset": 0,
        "slot": "12",
        "type": "t_mapping(t_address,t_mapping(t_address,t_string_storage))"
      },
      {
        "astId": 2882,
        "contract": "contracts/nftMetadata.sol:NFTMetadata",
        "label": "midImage",
        "offset": 0,
        "slot": "13",
        "type": "t_mapping(t_address,t_mapping(t_address,t_mapping(t_address,t_string_storage)))"
      }
    ],
    "types": {
      "t_address": {
        "encoding": "inplace",
        "label": "address",
        "numberOfBytes": "20"
      },
      "t_array(t_address)4_storage": {
        "base": "t_address",
        "encoding": "inplace",
        "label": "address[4]",
        "numberOfBytes": "128"
      },
      "t_array(t_string_storage)dyn_storage": {
        "base": "t_string_storage",
        "encoding": "dynamic_array",
        "label": "string[]",
        "numberOfBytes": "32"
      },
      "t_mapping(t_address,t_mapping(t_address,t_mapping(t_address,t_string_storage)))": {
        "encoding": "mapping",
        "key": "t_address",
        "label": "mapping(address => mapping(address => mapping(address => string)))",
        "numberOfBytes": "32",
        "value": "t_mapping(t_address,t_mapping(t_address,t_string_storage))"
      },
      "t_mapping(t_address,t_mapping(t_address,t_string_storage))": {
        "encoding": "mapping",
        "key": "t_address",
        "label": "mapping(address => mapping(address => string))",
        "numberOfBytes": "32",
        "value": "t_mapping(t_address,t_string_storage)"
      },
      "t_mapping(t_address,t_mapping(t_uint256,t_string_storage))": {
        "encoding": "mapping",
        "key": "t_address",
        "label": "mapping(address => mapping(uint256 => string))",
        "numberOfBytes": "32",
        "value": "t_mapping(t_uint256,t_string_storage)"
      },
      "t_mapping(t_address,t_string_storage)": {
        "encoding": "mapping",
        "key": "t_address",
        "label": "mapping(address => string)",
        "numberOfBytes": "32",
        "value": "t_string_storage"
      },
      "t_mapping(t_uint256,t_string_storage)": {
        "encoding": "mapping",
        "key": "t_uint256",
        "label": "mapping(uint256 => string)",
        "numberOfBytes": "32",
        "value": "t_string_storage"
      },
      "t_string_storage": {
        "encoding": "bytes",
        "label": "string",
        "numberOfBytes": "32"
      },
      "t_uint256": {
        "encoding": "inplace",
        "label": "uint256",
        "numberOfBytes": "32"
      }
    }
  }
}